:0400000007EF00F016
:0A000800018210ED03F0DCEF05F0BB
:10060000003C2D2D002D2D3E003C2D3E004F46463A
:1006100000494E440052504D0047450053500000E1
:100620000600F2A416EF03F018EF03F094EF03F0C6
:10063000F294060ED624D66E000ED720D76E394A15
:100640003A2A3A5009E1280E395CD8A02AEF03F083
:100650002CEF03F094EF03F03A6A000E396E3D5030
:10066000D8B435EF03F038EF03F0010E39EF03F0A3
:10067000000E3D6E3E04D8A440EF03F042EF03F0BD
:1006800057EF03F03D50D8B448EF03F04AEF03F0C2
:100690004FEF03F081500309816E52EF03F0815058
:1006A000FC0B816E81503F0B816E94EF03F0020EC4
:1006B0003E18D8A45EEF03F060EF03F075EF03F08F
:1006C0003D50D8B466EF03F068EF03F06DEF03F030
:1006D0008150C009816E70EF03F081503F0B816E35
:1006E0008150FC0B816E94EF03F0030E3E18D8A4EA
:1006F0007CEF03F07EEF03F08EEF03F03D50D8B4B3
:1007000084EF03F086EF03F08EEF03F08150C00911
:10071000816E81500309816E94EF03F08150FC0BD0
:10072000816E81503F0B816E019211001050D96E85
:10073000DA6ADF50126E1250146E136A1050D96EBE
:10074000DA6A010ED926DF50156E155013103B6E74
:1007500014503C6EC70E0E6E3BC002F03CC003F05E
:10076000030E056EE80E046EECEC04F00250300F40
:100770007AEC06F0C80E0E6E056A640E046E3BC07D
:1007800002F03CC003F0ECEC04F002C009F003C03E
:100790000AF00C6A0A0E0B6E5BEC05F00950300F84
:1007A0007AEC06F0C90E0E6E056A0A0E046E3BC0A6
:1007B00002F03CC003F0ECEC04F002C009F003C00E
:1007C0000AF00C6A0A0E0B6E5BEC05F00950300F54
:1007D0007AEC06F0CA0E0E6E3BC009F03CC00AF07F
:1007E0000C6A0A0E0B6E5BEC05F00950300F7AECC8
:1007F00006F012000750D96EDA6ADF503E6E3E50A6
:10080000D8A405EF04F007EF04F013EF04F00D0E89
:10081000046E0450D8A4060E056ECC0E066E25ECB0
:1008200005F04FEF04F03E04D8A419EF04F01BEFDD
:1008300004F027EF04F0010E046E0450D8A4060E55
:10084000056ECC0E066E25EC05F04FEF04F0020E9F
:100850003E18D8A42EEF04F030EF04F03CEF04F083
:10086000050E046E0450D8A4060E056ECC0E066E5E
:1008700025EC05F04FEF04F0030E3E18D8A443EF2B
:1008800004F045EF04F04FEF04F0090E046E04503D
:10089000D8A4060E056ECC0E066E25EC05F01200EF
:1008A000206A1E0E0A6E160E0B6E200E0C6EA2EC47
:1008B00004F02050D8B45FEF04F061EF04F0A1EF32
:1008C00004F0100E1E181F10D8A469EF04F06BEF8F
:1008D00004F071EF04F0160E106E20C011F096ECCB
:1008E00003F0200E1E181F10D8A479EF04F07BEF40
:1008F00004F081EF04F0160E076E20C008F04DECF6
:1009000006F0300E1E181F10D8A489EF04F08BEFEC
:1009100004F091EF04F0160E106E20C011F096EC6A
:1009200003F0500E1E181F10D8A499EF04F09BEF8F
:1009300004F0A1EF04F0160E076E20C008F0FAECE8
:1009400003F0120060AEA7EF04F0A9EF04F0E7EFA8
:1009500004F0F9EC05F00A50D96EDA6A02C0DEFF45
:1009600003C0DDFF0C50D96EDA6A65CFDFFF660E7B
:10097000106E0F0E116E136A000E126ECEEF04F0A1
:1009800012501024D96E13501120DA6E0B5012241D
:10099000E16EE26ADFCFE7FF124A132A0C50D96EEC
:1009A000DA6ADF500D6E0E6A0D50125C1350800A29
:1009B0000F6E0E50800A0F58D8A0E1EF04F0E3EF5D
:1009C00004F0C0EF04F0609EA490EBEF04F00C5034
:1009D000D96EDA6ADF6A1200076A000E066E0450EA
:1009E0000510D8B4F6EF04F0F8EF04F020EF05F0AE
:1009F000010E086E00EF05F0D89004360536082A7F
:100A000005AE05EF05F007EF05F0FCEF04F0D89018
:100A1000063607360450025C05500358D8A013EF81
:100A200005F015EF05F01AEF05F00450025E0550D1
:100A3000035A0680D89005320432082E07EF05F0DD
:100A400006C002F007C003F01200000E026E06504E
:100A500016EC06F042EF05F0010E026E04C0F6FF40
:100A600005C0F7FFF86A050EF76403D00800F550DB
:100A700005D0F6CFE9FFF7CFEAFFEF5016EC06F00E
:100A8000044A052A04C0F6FF05C0F7FFF86A050E00
:100A9000F76403D00800F55005D0F6CFE9FFF7CF93
:100AA000EAFFEF500009D8A458EF05F05AEF05F01F
:100AB0002CEF05F012000B500C10D8B462EF05F0CB
:100AC00064EF05F088EF05F0010E0D6E6CEF05F098
:100AD000D8900B360C360D2A0CAE71EF05F073EF83
:100AE00005F068EF05F00B50095C0C500A58D8A0CF
:100AF0007CEF05F07EEF05F082EF05F00B50095E0C
:100B00000C500A5AD8900C320B320D2E73EF05F0B0
:100B100009C009F00AC00AF0120033EC06F0BEEC7E
:100B200005F08EEC06F05FEC06F01C0E046E04502F
:100B3000D8A4060E056E800E066E25EC05F0190E83
:100B4000046E0450D8A4060E056E840E066E25ECC5
:100B500005F0150E046E0450D8A4060E056E870E1F
:100B6000066E25EC05F0110E046E0450D8A4060E96
:100B7000056E8C0E066E25EC05F01200939493869C
:100B80001F0E6F166F8E800E6E18D8A4CAEF05F078
:100B9000CCEF05F0C3EF05F0776AE10E706E1B0E27
:100BA000716E030E726E0D01D46B1F0E6F166F50B7
:100BB000606A608A608C1200DC0EF66E0C0EF76EB6
:100BC000000EF86E00EE21F010EE18F00900F5CFDF
:100BD000EEFFE550E150FAE100EE39F0080EEE6A62
:100BE000E806FDE101900192000EF86E000186EF2B
:100BF00006F06150046E056AD89004360536D89028
:100C000004360536D890043605366238E842070BBC
:100C1000070B066E076A04500610086E0550071091
:100C2000096E08C002F009C003F01200036E02B0A2
:100C30001CEF06F01FEF06F0828220EF06F0829292
:100C400003C083FF82848294958E82808292828404
:100C5000829483BE2EEF06F030EF06F027EF06F009
:100C60008290959E1200956A9450F80B946E829033
:100C7000000E026E020E16EC06F0000E026E380E2A
:100C800016EC06F0000E026E0C0E16EC06F0000ECE
:100C9000026E010E16EC06F012000750D96EDA6AE9
:100CA000DF503F6E3F50030DF350210F096E09C016
:100CB00004F0056AC40E066E25EC05F01200D58C12
:100CC000D59AD58ED596D76A060ED66EF294F28A4C
:100CD000D584D582D580F28EF28C1200474E004723
:100CE0003100473200473300473400473500475250
:100CF00000434F000F6E000E026E0E5016EC06F011
:100D0000010E026E0F5016EC06F012008DEC05F08D
:100D100050EC04F088EF06F007EF00F0080E936E39
:040D2000816A1200D2
:020000040020DA
:08000000FFFFFFFFFFFFFFFF00
:020000040030CA
:0E000000FF071F1FFF8285FF0FC00FE00F409C
:00000001FF
