:0400000007EF00F016
:0A0008000182AFED04F03AEF05F0BD
:100600000000000E166E000E176E000E186E000E23
:10061000196E1250131014101510D8B412EF03F005
:1006200014EF03F04AEF03F0010E1A6E1EEF03F011
:10063000D89012361336143615361A2A15AE23EF13
:1006400003F025EF03F018EF03F0D89016361736B5
:100650001836193612500E5C13500F58145010589B
:1006600015501158D8A037EF03F039EF03F042EFDF
:1006700003F012500E5E13500F5A1450105A1550BA
:10068000115A1680D89015321432133212321A2EA3
:1006900025EF03F016C00EF017C00FF018C010F0D1
:1006A00019C011F0120078EC05F095EC03F01BC0B6
:1006B00029F01CC02AF01DC02BF01EC02CF02AC04F
:1006C0002DF029C02EF0076A300E066E2D0E086E32
:1006D000020E096E0DEC04F0030E286E080E276E54
:1006E000770EE82EFED7272EFCD7282EFAD700004B
:1006F00044EC04F032C02DF0076A500E066E2D0E49
:10070000086E010E096E0DEC04F0030E286E080E43
:10071000276E770EE82EFED7272EFCD7282EFAD785
:10072000000055EF03F007EF00F0040EDBEC04F0DF
:1007300002C01FF003C020F0216A226A1FC002F02D
:1007400020C003F021C004F022C005F0700E066E38
:10075000170E076E000E086E000E096E7AEC04F09C
:1007600002C00EF003C00FF004C010F005C011F07D
:10077000FF0E126E030E136E000E146E000E156E39
:1007800001EC03F00EC023F00FC024F010C025F0E0
:1007900011C026F023C01BF024C01CF025C01DF0A2
:1007A00026C01EF01200026E0204D8A4DAEF03F095
:1007B000DCEF03F001EF04F082500F0B0F0AD8B406
:1007C000E4EF03F0E6EF03F0F3EF03F03350D8B4B7
:1007D000ECEF03F0EEEF03F0F3EF03F0336A825037
:1007E0000F0B0CEF04F082500F0B0F0AD8A4FBEF95
:1007F00003F0FDEF03F00BEF04F0010E336E0BEF8F
:1008000004F00250D8A407EF04F009EF04F00BEF56
:1008100004F0EFEF03F0FF0E12000F01436B446B87
:1008200006C002F007C003F01CEC05F009C045FF4C
:10083000460E0D6E0F0E0E6E106A000E0F6E2FEF2D
:1008400004F008500F24D96EDA6A0F500D24E16EBF
:1008500010500E20E26EDFCFE7FF0F4A102A09503A
:100860000A6E0B6A0A500F5C1050800A0C6E0B5017
:10087000800A0C58D8A03FEF04F041EF04F021EFBC
:1008800004F00F0140871200010ED3EC03F0036E59
:100890000E0E0318D8A44FEF04F051EF04F055EFFB
:1008A00004F0010E326E79EF04F00D0E0318D8A497
:1008B0005CEF04F05EEF04F062EF04F0020E326EC3
:1008C00079EF04F00B0E0318D8A469EF04F06BEF76
:1008D00004F06EEF04F0326A79EF04F0070E0318AB
:1008E000D8A475EF04F077EF04F079EF04F0030E6D
:1008F000326E1200000E0A6E000E0B6E000E0C6EB1
:10090000000E0D6E02A087EF04F089EF04F091EF66
:1009100004F006500A2607500B2208500C220950FA
:100920000D22D8900636073608360936D89005329B
:100930000432033202320250031004100510D8A40E
:10094000A4EF04F0A6EF04F082EF04F00AC002F076
:100950000BC003F00CC004F00DC005F0120006003F
:10096000F2A4B5EF04F0B7EF04F0D9EF04F0F2947D
:10097000060ED624D66E000ED720D76E2F4A302A08
:10098000305009E1280E2F5CD8A0C9EF04F0CBEF5E
:1009900004F0D9EF04F0306A000E2F6E3150D8B455
:1009A000D4EF04F0D7EF04F0010ED8EF04F0000EFE
:1009B000316E01921100086E08C004F0D890043620
:1009C000D8900436C250C30B0410C26EC282C2B2A9
:1009D000ECEF04F0EEEF04F0E7EF04F0C350C4CF07
:1009E00004F0056A04C005F0046A0410066E0550A0
:1009F000076E06C002F007C003F0120093949386BE
:100A00001F0E6F166F8E800E6E18D8A40AEF05F0B9
:100A10000CEF05F003EF05F0776AE10E706E1B0E28
:100A2000716E030E726E0D01D46B1F0E6F166F5038
:100A3000606A608A608C120002C004F0070E04161F
:100A4000050E056ED8900436052E22EF05F00450F1
:100A50000F01426F02C004F003C005F0D8900532C8
:100A60000432D89005320432D89005320432045052
:100A7000416F1200120EF66E0B0EF76E000EF86E3E
:100A80000900F5CF33F0326A316A306A2F6A01907B
:100A90000192000153EF03F0948E949CAC9CAC8ABD
:100AA000AC98AC96AC84AB8EAB9CAB88B896810E00
:100AB000AF6E9E989E9A1200D58ED59AD596D58403
:100AC000D582D580D76A060ED66EF28EF28CF28A67
:100AD000F2941200C08EC09AC088C096C090C082A6
:100AE000C094C292C19AC198C46AC36AC2801200FB
:100AF0005CEC05F04CEC05F06AEC05F085EC05F0DB
:100B0000FEEC04F0936A816A120094500F09946E0F
:030B1000120001CF
:020000040020DA
:08000000FFFFFFFFFFFFFFFF00
:020000040030CA
:0E000000FF071F1FFF8285FF0FC00FE00F409C
:00000001FF
