:04000000FEEF17F008
:1006000000001250800B1F6E12501224266E11AE85
:100610000CEF03F00EEF03F00FEF03F026802650EF
:10062000D8B415EF03F017EF03F02BEF03F02628F3
:10063000D8A41DEF03F01FEF03F027EF03F0000E27
:100640000F6E000E106E000E116E000E126E118EE7
:10065000126A33EF03F0000E0F6E000E106E000EE4
:10066000116E000E126E1650800B1F1A16501624B3
:10067000276E15AE3EEF03F040EF03F041EF03F0BD
:1006800027802750D8B447EF03F049EF03F05DEF20
:1006900003F02728D8A44FEF03F051EF03F059EFF0
:1006A00003F0000E136E000E146E000E156E000E99
:1006B000166E158E166A65EF03F0000E136E000EAF
:1006C000146E000E156E000E166E135014101510D9
:1006D0001610D8A46EEF03F070EF03F088EF03F06C
:1006E000000E0F6E000E106E000E116E000E126ED8
:1006F000800E11127F0E12121F5012120FC00FF037
:1007000010C010F011C011F012C012F0C7EF04F0C9
:100710002650D8A48EEF03F090EF03F09AEF03F089
:10072000000E0F6E000E106E000E116E000E126E97
:10073000C7EF04F0275026C017F0186A175E000EA6
:10074000185A7F0E1724206E000E1820216E0FC03D
:100750001BF010C01CF011C01DF012C01EF0000EE6
:100760000F6E000E106E000E116E000E126E000E57
:10077000226E000E236E000E246E000E256E276A78
:10078000FAEF03F02750D8B4C8EF03F0CAEF03F034
:10079000E1EF03F0D8901B361C361D361E36D8907C
:1007A0000F3610361136123625AED9EF03F0DBEFD7
:1007B00003F0DCEF03F00F80D89022362336243686
:1007C000253613501B5C14501C5815501D581650DC
:1007D0001E58D8A0EEEF03F0F0EF03F0F9EF03F0AE
:1007E000258C13501B5E14501C5A15501D5A165060
:1007F0001E5A272A190E276400EF04F002EF04F0B6
:10080000C2EF03F01B501C101D101E10D8B40BEFCC
:1008100004F00DEF04F025EF04F0228025EF04F042
:10082000D8900F3610361136123625AE1AEF04F076
:100830001CEF04F01DEF04F00F80D8902236233611
:10084000243625362006D8A0210611AE2AEF04F062
:100850002CEF04F010EF04F0276A25AE32EF04F01D
:1008600034EF04F058EF04F0FF0E2214176EFF0E61
:100870002314186EFF0E2414196E7F0E25141A6EA1
:100880001750181019101A10D8B449EF04F04BEF94
:1008900004F04FEF04F0010E276E58EF04F00FA0A4
:1008A00054EF04F056EF04F058EF04F04BEF04F06F
:1008B0002750D8B45EEF04F060EF04F084EF04F04A
:1008C000010E0F26000E10221122122212A06BEF31
:1008D00004F06DEF04F084EF04F00FC017F010C0C7
:1008E00018F011C019F012C01AF01A341A32193265
:1008F0001832173217C00FF018C010F019C011F0DD
:100900001AC012F0204A212A21BE8FEF04F0215094
:1009100008E12028D8A08FEF04F091EF04F09CEFBD
:1009200004F0000E216E2068000E0F6E000E106E97
:10093000000E116E000E126E21BEA9EF04F02150C0
:1009400006E12004D8B0A7EF04F0A9EF04F0B5EF5A
:1009500004F0216A000E206E000E0F6E000E106E65
:10096000000E116E000E126E1F6A20C026F026A027
:10097000BCEF04F0BEEF04F0C1EF04F0118EC2EF43
:1009800004F0119ED8902630126E7CEF03F0120016
:10099000096E0950D8B4CFEF04F0D1EF04F0F3EFB3
:1009A00004F004BED8EF04F0D6EF04F0F3EF04F047
:1009B00001C005F002C006F003C007F004C008F053
:1009C000051E061E071E081E052A000E0622072207
:1009D000082205C00BF006C00CF007C00DF008C0DF
:1009E0000EF0FBEF04F001C00BF002C00CF003C0EE
:1009F0000DF004C00EF00150021003100410D8A432
:100A000004EF05F006EF05F010EF05F0000E016EA3
:100A1000000E026E000E036E000E046EA1EF05F0D4
:100A2000960E0A6E1AEF05F00A2AD8900E320D3291
:100A30000C320B32000E0B14056E000E0C14066EF9
:100A4000000E0D14076EFE0E0E14086E05500610F3
:100A500007100810D8A42FEF05F031EF05F014EFC0
:100A600005F03FEF05F00A2A010E0B26000E0C22BE
:100A70000D220E22D8900E320D320C320B32000EA7
:100A80000B14056E000E0C14066E000E0D14076E8E
:100A9000FF0E0E14086E0550061007100810D8A49B
:100AA00054EF05F056EF05F033EF05F05EEF05F07B
:100AB0000A06D8900B360C360D360E360DBE63EF97
:100AC00005F065EF05F06DEF05F0020E0A606BEFC3
:100AD00005F06DEF05F058EF05F00AB072EF05F084
:100AE00074EF05F075EF05F00D9ED8900A320AC03C
:100AF00005F0066A076A086A05C008F0076A066A10
:100B0000056A05500B1206500C1207500D120850C2
:100B10000E120950D8B48FEF05F091EF05F099EF60
:100B200005F004BE98EF05F096EF05F099EF05F09B
:100B30000E8E0BC001F00CC002F00DC003F00EC011
:100B400004F012002A342B34316E3150D8A4ABEFAC
:100B500005F0ADEF05F0B7EF05F0000E286E000EC2
:100B6000296E000E2A6E000E2B6E24EF06F028C0B0
:100B70002CF029C02DF02AC02EF02BC02FF0200E13
:100B8000C7EF05F0D8902F322E322D322C32E82EBE
:100B9000C2EF05F02C50306E2A8EFF0E2816FF0E85
:100BA0002916FF0E2A16000E2B16960E315E31BE48
:100BB000DEEF05F0DCEF05F0F4EF05F03150800AD0
:100BC000970FD8B0E6EF05F0E8EF05F0EAEF05F093
:100BD000ADEF05F0D8902B322A3229322832313E3F
:100BE000EAEF05F00CEF06F01F0E3164FAEF05F0A6
:100BF000FCEF05F004EF06F0ADEF05F0D8902836D5
:100C000029362A362B3631063150D8A40AEF06F0A1
:100C10000CEF06F0FEEF05F03050D8B412EF06F0FE
:100C200014EF06F01CEF06F02B1E2A1E291E286C5E
:100C3000000E29222A222B2228C028F029C029F0C0
:100C40002AC02AF02BC02BF01200CBEC07F0E6EC08
:100C500007F0BBEC07F06BEC07F013EC07F032C0C9
:100C60003AF033C03BF0020E396E450E386EAA0ED4
:100C7000E82EFED7382EFCD7392EFAD73AC03DF0F1
:100C8000066A100E056E3D0E076E010E086EDCEC56
:100C900006F066EC06F03C6E020E396E450E386EBC
:100CA000AA0EE82EFED7382EFCD7392EFAD73CC034
:100CB0003DF0066A200E056E3D0E076E010E086EB1
:100CC000DCEC06F02DEF06F0FEEF17F0010EA2ECC3
:100CD00006F0026E0E0E0218D8A471EF06F073EF44
:100CE00006F07EEF06F0060E576079EF06F07BEF18
:100CF00006F0A0EF06F0572AA0EF06F00D0E02183E
:100D0000D8A485EF06F087EF06F095EF06F0575070
:100D1000D8B48DEF06F08FEF06F092EF06F057068D
:100D2000A0EF06F0576AA0EF06F00B0E0218D8A449
:100D30009CEF06F09EEF06F0A0EF06F0070E576E50
:100D400057501200016E0104D8A4A9EF06F0ABEFD2
:100D500006F0D0EF06F082500F0B0F0AD8B4B3EFB5
:100D600006F0B5EF06F0C2EF06F05650D8B4BBEF70
:100D700006F0BDEF06F0C2EF06F0566A82500F0B88
:100D8000DBEF06F082500F0B0F0AD8A4CAEF06F073
:100D9000CCEF06F0DAEF06F0010E566EDAEF06F051
:100DA0000150D8A4D6EF06F0D8EF06F0DAEF06F03F
:100DB000BEEF06F0FF0E12000F01436B446B05C03F
:100DC00001F006C002F089EC07F008C045FF460EAE
:100DD0000C6E0F0E0D6E0F6A000E0E6EFEEF06F01B
:100DE00007500E24D96EDA6A0E500C24E16E0F50B3
:100DF0000D20E26EDFCFE7FF0E4A0F2A0850096E82
:100E00000A6A09500E5C0F50800A0B6E0A50800A65
:100E10000B58D8A00EEF07F010EF07F0F0EF06F038
:100E20000F0140871200040E48EC07F001C034F0B7
:100E300002C035F0000E136E000E146E240E156EF7
:100E4000410E166E34C001F035C002F0036A046A28
:100E5000000EC8EC04F001C00FF002C010F003C097
:100E600011F004C012F001EC03F00FC028F010C024
:100E700029F011C02AF012C02BF0A2EC05F028C016
:100E800036F029C037F036C032F037C033F01200E8
:100E9000076E07C003F0D8900336D8900336C250CF
:100EA000C30B0310C26EC282C2B259EF07F05BEFF0
:100EB00007F054EF07F0C350C4CF03F0046A03C037
:100EC00004F0036A0310056E0450066E05C001F0BD
:100ED00006C002F01200939493861F0E6F166F8E59
:100EE000800E6E18D8A477EF07F079EF07F070EF57
:100EF00007F0776AE10E706E1B0E716E030E726E54
:100F00000D01D46B1F0E6F166F50606A608A608C83
:100F1000120001C003F0070E0316050E046ED890F0
:100F20000336042E8FEF07F003500F01426F01C00C
:100F300003F002C004F0D89004320332D890043297
:100F40000332D890043203320350416F1200B20EC4
:100F5000F66E0F0EF76E000EF86E00EE3EF010EE1D
:100F600019F00900F5CFEEFFE550E150FAE1576ABC
:100F7000000125EF06F0948E949CAC9CAC8AAC9852
:100F8000AC96AC84AB8EAB9CAB88B896810EAF6E42
:100F90009E989E9A1200C08EC09AC088C096C0903B
:100FA000C082C094C292C19AC198C46AC36AC28006
:100FB0001200474E004731004732004733004734A4
:0B0FC00000473500475200434F00017E
:080FCC0094500F09946E12000D
:042FFC00A7EF07F044
:020000040020DA
:08000000FFFFFFFFFFFFFFFF00
:020000040030CA
:0E000000FF071F1FFF8285FF0FC00FE00F409C
:00000001FF
